:100000000C9472000C948B000C948B000C948B005D
:100010000C948B000C948B000C948B000C948B0034
:100020000C948B000C948B000C948B000C948B0024
:100030000C948B000C948B000C948B000C948B0014
:100040000C948B000C948B000C948B000C948B0004
:100050000C948B000C948B000C948B000C948B00F4
:100060000C948B000C948B000C948B000C948B00E4
:100070000C948B000C948B000C948B000C948B00D4
:100080000C948B000C948B000C948B000C948B00C4
:100090000C948B000C948B000C948B000C948B00B4
:1000A0000C948B000C948B000C948B000C948B00A4
:1000B0000C948B000C948B000C948B000C948B0094
:1000C0000C948B000C948B000C948B000C948B0084
:1000D0000C948B000C948B000C948B000C948B0074
:1000E0000C948B0011241FBECFEFD1E2DEBFCDBF39
:1000F00000E00CBF12E0A0E0B2E0E4EEF3E000E0CC
:100100000BBF02C007900D92A033B107D9F70E9430
:100110008D000C94F0010C9400000E941D010E94BF
:10012000520190E080E00895CF93C82F8EE40E94A2
:1001300077018C2F0E94CB010E94C3018FEA94E0CB
:100140000197F1F700C00000CF910895CF93C82F19
:100150008FEA94E00197F1F700C000008C2F8460D3
:100160000E9494008FEA94E00197F1F700C000002C
:100170008C2F8B7F0E9494008FEA94E00197F1F717
:1001800000C00000CF910895CF93DF93D82FD07F88
:10019000D62BD86020E1829FC0011124682BC62F86
:1001A000C8608D2F0E9494008D2F0E94A6008C2F76
:1001B0000E9494008C2FDF91CF910C94A600CF93D6
:1001C000DF9300D000D00F920F92CDB7DEB7AB0116
:1001D00028E0E0E0F2E0DE01119601900D922A9510
:1001E000E1F7880F991FE1E0F0E0EC0FFD1FE80F49
:1001F000F91F8081918180589F4F70E060E0840FEB
:1002000028960FB6F894DEBF0FBECDBFDF91CF9119
:100210000C94C400CF93DF93EC018991811103C04A
:10022000DF91CF91089561E070E00E94C400F5CFA6
:1002300070E060E081E00C94C4000E94710170E005
:1002400060E083E00E94C40070E060E083E00E9410
:10025000C40070E060E083E00E94C40070E060E0F1
:1002600082E00E94C40070E060E086E00E94C4006A
:1002700070E060E088E20E94C40070E060E08CE022
:100280000E94C4000C941801CF93DF93EC01862FD9
:10029000642F70E090E00E94DF00CE01DF91CF91EB
:1002A0000C940A0162E070E081E090E00E94DF00BF
:1002B00088E092E00E940A0170E060E083E090E054
:1002C0000E94DF008AE192E00E940A012FEF83ED95
:1002D00090E3215080409040E1F700C000000C9472
:1002E00018011092B90080E28093B800089594EA52
:1002F0009093BC009091BC0097FFFCCF9091B90007
:10030000987F983011F0903199F48093BB0084E885
:100310008093BC008091BC0087FFFCCF9091B90016
:10032000987F983119F081E0903409F480E00895C5
:1003300081E0089524EA34E844E92093BC009091D8
:10034000BC0097FFFCCF9091B900987F983011F0D6
:10035000903199F78093BB003093BC009091BC0022
:1003600097FFFCCF9091B900987F903211F09835AB
:1003700039F44093BC009091BC0094FDFCCFDDCFDC
:1003800008950C94770184E98093BC008091BC00AF
:1003900084FDFCCF08958093BB0084E88093BC006B
:1003A0008091BC0087FFFCCF9091B900987F81E0DD
:1003B000983209F480E0089584EC8093BC00809129
:1003C000BC0087FFFCCF8091BB00089584E8809338
:1003D000BC008091BC0087FFFCCF8091BB000895DA
:0403E000F894FFCFBF
:1003E40000004000140054003230303441204C43AB
:1003F40044204578616D706C65002D46726970709B
:10040400657274726F6E6963732032303232000029
:00000001FF
